:020000021000EC
:10F000000C9446F80C9465F80C9465F80C9465F82B
:10F010000C9465F80C9465F80C9465F80C9465F8FC
:10F020000C9465F80C9465F80C9465F80C9465F8EC
:10F030000C9465F80C9465F80C9465F80C9465F8DC
:10F040000C9465F80C9465F80C9465F80C9465F8CC
:10F050000C9465F80C9465F80C9465F80C9465F8BC
:10F060000C9465F80C9465F80C9465F80C9465F8AC
:10F070000C9465F80C9465F80C9465F80C9465F89C
:10F080000C9465F80C9465F80C9465F811241FBE77
:10F09000CFEFD0E1DEBFCDBF11E0A0E0B1E0E0E313
:10F0A000F8EF01E00BBF02C007900D92A230B1074C
:10F0B000D9F712E0A2E0B1E001C01D92AD30B10776
:10F0C000E1F70E945EF90C9416FC0C9400F8982F5E
:10F0D00080910201813021F45D9BFECF9CB908959F
:10F0E000823031F480919B0085FFFCCF90939C008F
:10F0F00008951F93982F82958F708A3018F0282FCB
:10F10000295A02C0282F205D892F8F708A3018F06D
:10F11000182F195A02C0182F105D822F0E9467F80D
:10F12000812F0E9467F81F910895EF92FF920F932D
:10F130001F93809102018130D9F4EE24FF248701CE
:10F1400013C00894E11CF11C011D111D81E4E81697
:10F1500082E4F8068FE0080780E0180728F0E091C5
:10F160000401F091050109955F9BEBCF8CB121C0A3
:10F17000823011F080E01DC0EE24FF24870113C00F
:10F180000894E11CF11C011D111D81E4E81682E4C4
:10F19000F8068FE0080780E0180728F0E0910401E6
:10F1A000F0910501099580919B0087FFE9CF80913F
:10F1B0009C001F910F91FF90EF9008951F930E9464
:10F1C00095F8182F0E9467F8113610F0175503C0F4
:10F1D000103308F01053812F1F9108951F930E9440
:10F1E000DEF8182F0E94DEF81295107F810F1F9114
:10F1F0000895982F209102010FC0213021F45F9BC8
:10F20000FECF8CB108C0223031F480919B0087FF83
:10F21000FCCF80919C009150992379F708951F931A
:10F22000182F0E9495F8803251F484E10E9467F80B
:10F23000812F0E9467F880E10E9467F80CC08091DE
:10F2400003018F5F80930301853029F4E09104016D
:10F25000F091050109951F9108950E9495F880325B
:10F2600039F484E10E9467F880E10E9467F808950C
:10F27000809103018F5F80930301853029F4E09131
:10F280000401F09105010995089540E951E013C08A
:10F29000C09A28EE33E0FA013197F1F7215030405F
:10F2A000D1F7C09828EE33E0FA013197F1F72150F9
:10F2B0003040D1F78150882359F70895CF92DF92DB
:10F2C000EF92FF920F931F93CF93DF9300008091F3
:10F2D00061008F7780936100809161008F7B8093C4
:10F2E000610080916200806880936200809162007A
:10F2F00080648093620081E08093020188E089B994
:10F30000109290001BB886E08093950088E18AB93E
:10F31000B89A82E00E9445F9FF24F3940E9495F880
:10F32000803309F440C08133E1F40E9495F88032C3
:10F3300009F059C284E10E9467F881E40E9467F8ED
:10F3400086E50E9467F882E50E9467F880E20E94E5
:10F3500067F889E40E9467F883E50E9467F880E512
:10F3600020C1803439F40E9495F88638E0F00E947C
:10F3700095F819C0813491F40E9495F8803809F409
:10F380003FC0813811F481E091C1823811F480E1ED
:10F390008DC1883909F089C183E088C1823431F494
:10F3A00084E10E94F9F80E942DF9B8CF853411F458
:10F3B00085E0F7CF8035B9F38235A9F3813599F32C
:10F3C000853549F40E9495F8809306010E9495F8CE
:10F3D00080930701E8CF8635C9F40E9495F8803301
:10F3E00089F40E9495F80E9495F8182F0E9495F8CC
:10F3F000112311F48EE15AC1113011F487E956C17D
:10F4000082E054C183E00E94F9F84FC1843609F0CC
:10F41000CEC00E9495F8809309020E9495F88093CF
:10F42000080280910C028E7F80930C020E9495F856
:10F43000853429F480910C02816080930C0200E0F5
:10F4400010E008C00E9495F8F801E85FFE4F808345
:10F450000F5F1F4F8091080290910902081719074A
:10F4600088F30E9495F8803209F0BDC180910C02AA
:10F4700080FF2AC08091060190910701880F991F93
:10F48000909307018093060100E010E015C0F80199
:10F49000E85FFE4F809106019091070160810E9414
:10F4A00009FC809106019091070101969093070154
:10F4B000809306010F5F1F4F80910802909109020F
:10F4C0000817190720F36CC0809107018823880F63
:10F4D000880B8F2180930B028BBF80910601909146
:10F4E0000701880F991F909307018093060180916F
:10F4F000080280FF09C080910802909109020196DC
:10F500009093090280930802F894E199FECF1127A5
:10F51000E0910601F0910701C8E0D1E08091080276
:10F5200090910902103091F400916800017001304F
:10F53000D9F303E000936800E8950091680001703A
:10F540000130D9F301E100936800E8950990199022
:10F550000091680001700130D9F301E00093680068
:10F56000E8951395103898F0112700916800017004
:10F570000130D9F305E000936800E8950091680038
:10F5800001700130D9F301E100936800E8953296EB
:10F59000029709F0C7CF103011F00296E5CF112481
:10F5A00084E10E9467F880E10E9467F8B7CE843753
:10F5B00009F067C00E9495F8809309020E9495F8AF
:10F5C00080930802809106019091070120910C021E
:10F5D00097FF02C0226001C02D7F20930C02809112
:10F5E000060190910701880F991F9093070180935E
:10F5F00006010E9495F820910C02853411F42160D7
:10F6000001C02E7F20930C020E9495F8803209F0F1
:10F6100085CE84E10E9467F800E010E02AC0809166
:10F620000C0280FF07C080910601909107010E94A3
:10F6300001FC12C0E0910601F091070181FD02C0BA
:10F6400084910AC0CF01A0E0B0E080509040AF4F5D
:10F65000BF4FABBFFC0187910E9467F88091060104
:10F6600090910701019690930701809306010F5F27
:10F670001F4F80910802909109020817190778F22C
:10F6800092CF853781F40E9495F8803209F0ABC0A3
:10F6900084E10E9467F88EE10E9467F887E90E9482
:10F6A00067F882E07ECF863721F480E00E940FF970
:10F6B00035CE813209F097C00E9495F8813209F069
:10F6C0002DCE0E9495F8813209F028CEB89AC098C4
:10F6D00010920A0207C00E9467F880910A028F5FA9
:10F6E00080930A02E0910A02F0E0E050FF4F80812F
:10F6F000882389F78AE00E9467F88DE00E9467F806
:10F700008AE30E9467F880E20E9467F80E9495F8F9
:10F71000182F0E9467F8143751F4B09B03C0C098AB
:10F7200081E302C0C09A80E30E9467F8E3CF1237FA
:10F73000B1F40E9495F80E9467F80E94EEF8182F25
:10F740000E94EEF8082F8DE30E9467F8D12ECC249A
:10F75000F601E00FF11D80810E9479F8CBCF1737B9
:10F76000B9F40E9495F80E9467F80E94EEF8182FED
:10F770000E94EEF8082F0E9495F80E9467F80E94F8
:10F78000EEF8F12EEE24F701E00FF11D8083B2CFE9
:10F79000153729F40E9495F80E9467F8FBCF1236BE
:10F7A000C9F482E60E9467F885E70E9467F883E75C
:10F7B0000E9467F880E885BF10926D0010926C007F
:10F7C000E0E0F1E1CF01FC01819180E091E130972F
:10F7D000C9F7F9CF1A3609F08DCFE0910401F09105
:10F7E0000501099587CF809103018F5F8093030105
:10F7F000853009F093CDE0910401F0910501099560
:10F800008DCDE199FECF9FBB8EBBE09A99278DB33A
:10F810000895262FE199FECF9FBB8EBB2DBB0FB65F
:10F82000F894E29AE19A0FBE01960895F894FFCFFA
:02F83000008056
:040000031000F000F9
:00000001FF
